{
  "_format": "hh-sol-artifact-1",
  "contractName": "SOSAlertRegistry",
  "sourceName": "contracts/SOSAlertRegistry.sol",
  "abi": [
    {
      "anonymous": false,
      "inputs": [
        {
          "indexed": true,
          "internalType": "string",
          "name": "alertId",
          "type": "string"
        },
        {
          "indexed": false,
          "internalType": "uint256",
          "name": "timestamp",
          "type": "uint256"
        },
        {
          "indexed": false,
          "internalType": "bytes32",
          "name": "locationHash",
          "type": "bytes32"
        }
      ],
      "name": "AlertLogged",
      "type": "event"
    },
    {
      "inputs": [
        {
          "internalType": "string",
          "name": "alertId",
          "type": "string"
        }
      ],
      "name": "getAlert",
      "outputs": [
        {
          "internalType": "string",
          "name": "",
          "type": "string"
        },
        {
          "internalType": "uint256",
          "name": "",
          "type": "uint256"
        },
        {
          "internalType": "bytes32",
          "name": "",
          "type": "bytes32"
        }
      ],
      "stateMutability": "view",
      "type": "function"
    },
    {
      "inputs": [],
      "name": "getAlertCount",
      "outputs": [
        {
          "internalType": "uint256",
          "name": "",
          "type": "uint256"
        }
      ],
      "stateMutability": "view",
      "type": "function"
    },
    {
      "inputs": [
        {
          "internalType": "string",
          "name": "alertId",
          "type": "string"
        },
        {
          "internalType": "uint256",
          "name": "timestamp",
          "type": "uint256"
        },
        {
          "internalType": "bytes32",
          "name": "locationHash",
          "type": "bytes32"
        }
      ],
      "name": "logSOSAlert",
      "outputs": [],
      "stateMutability": "nonpayable",
      "type": "function"
    }
  ],
  "bytecode": "0x608060405234801561001057600080fd5b50610bb9806100206000396000f3fe608060405234801561001057600080fd5b50600436106100415760003560e01c806340411fc8146100465780636b50fd2c14610064578063727d064a14610096575b600080fd5b61004e6100b2565b60405161005b919061038a565b60405180910390f35b61007e600480360381019061007991906104ff565b6100bf565b60405161008d939291906105e0565b60405180910390f35b6100b060048036038101906100ab9190610676565b6101fb565b005b6000600180549050905090565b6060600080600080856040516100d59190610721565b90815260200160405180910390206040518060600160405290816000820180546100fe90610767565b80601f016020809104026020016040519081016040528092919081815260200182805461012a90610767565b80156101775780601f1061014c57610100808354040283529160200191610177565b820191906000526020600020905b81548152906001019060200180831161015a57829003601f168201915b505050505081526020016001820154815260200160028201548152505090506000816000015151116101de576040517f08c379a00000000000000000000000000000000000000000000000000000000081526004016101d5906107e4565b60405180910390fd5b806000015181602001518260400151935093509350509193909250565b600083511161023f576040517f08c379a000000000000000000000000000000000000000000000000000000000815260040161023690610850565b60405180910390fd5b60008211610282576040517f08c379a0000000000000000000000000000000000000000000000000000000008152600401610279906108bc565b60405180910390fd5b6040518060600160405280848152602001838152602001828152506000846040516102ad9190610721565b908152602001604051809103902060008201518160000190816102d09190610a88565b50602082015181600101556040820151816002015590505060018390806001815401808255809150506001900390600052602060002001600090919091909150908161031c9190610a88565b508260405161032b9190610721565b60405180910390207f8b226ef07e9b00bba18da76fdb7c6601f1b1bcd9f8f584924d802ca5dd67ebb48383604051610364929190610b5a565b60405180910390a2505050565b6000819050919050565b61038481610371565b82525050565b600060208201905061039f600083018461037b565b92915050565b6000604051905090565b600080fd5b600080fd5b600080fd5b600080fd5b6000601f19601f8301169050919050565b7f4e487b7100000000000000000000000000000000000000000000000000000000600052604160045260246000fd5b61040c826103c3565b810181811067ffffffffffffffff8211171561042b5761042a6103d4565b5b80604052505050565b600061043e6103a5565b905061044a8282610403565b919050565b600067ffffffffffffffff82111561046a576104696103d4565b5b610473826103c3565b9050602081019050919050565b82818337600083830152505050565b60006104a261049d8461044f565b610434565b9050828152602081018484840111156104be576104bd6103be565b5b6104c9848285610480565b509392505050565b600082601f8301126104e6576104e56103b9565b5b81356104f684826020860161048f565b91505092915050565b600060208284031215610515576105146103af565b5b600082013567ffffffffffffffff811115610533576105326103b4565b5b61053f848285016104d1565b91505092915050565b600081519050919050565b600082825260208201905092915050565b60005b83811015610582578082015181840152602081019050610567565b60008484015250505050565b600061059982610548565b6105a38185610553565b93506105b3818560208601610564565b6105bc816103c3565b840191505092915050565b6000819050919050565b6105da816105c7565b82525050565b600060608201905081810360008301526105fa818661058e565b9050610609602083018561037b565b61061660408301846105d1565b949350505050565b61062781610371565b811461063257600080fd5b50565b6000813590506106448161061e565b92915050565b610653816105c7565b811461065e57600080fd5b50565b6000813590506106708161064a565b92915050565b60008060006060848603121561068f5761068e6103af565b5b600084013567ffffffffffffffff8111156106ad576106ac6103b4565b5b6106b9868287016104d1565b93505060206106ca86828701610635565b92505060406106db86828701610661565b9150509250925092565b600081905092915050565b60006106fb82610548565b61070581856106e5565b9350610715818560208601610564565b80840191505092915050565b600061072d82846106f0565b915081905092915050565b7f4e487b7100000000000000000000000000000000000000000000000000000000600052602260045260246000fd5b6000600282049050600182168061077f57607f821691505b60208210810361079257610791610738565b5b50919050565b7f416c657274206e6f7420666f756e640000000000000000000000000000000000600082015250565b60006107ce600f83610553565b91506107d982610798565b602082019050919050565b600060208201905081810360008301526107fd816107c1565b9050919050565b7f416c6572742049442063616e6e6f7420626520656d7074790000000000000000600082015250565b600061083a601883610553565b915061084582610804565b602082019050919050565b600060208201905081810360008301526108698161082d565b9050919050565b7f54696d657374616d70206d7573742062652076616c6964000000000000000000600082015250565b60006108a6601783610553565b91506108b182610870565b602082019050919050565b600060208201905081810360008301526108d581610899565b9050919050565b60008190508160005260206000209050919050565b60006020601f8301049050919050565b600082821b905092915050565b60006008830261093e7fffffffffffffffffffffffffffffffffffffffffffffffffffffffffffffffff82610901565b6109488683610901565b95508019841693508086168417925050509392505050565b6000819050919050565b600061098561098061097b84610371565b610960565b610371565b9050919050565b6000819050919050565b61099f8361096a565b6109b36109ab8261098c565b84845461090e565b825550505050565b600090565b6109c86109bb565b6109d3818484610996565b505050565b5b818110156109f7576109ec6000826109c0565b6001810190506109d9565b5050565b601f821115610a3c57610a0d816108dc565b610a16846108f1565b81016020851015610a25578190505b610a39610a31856108f1565b8301826109d8565b50505b505050565b600082821c905092915050565b6000610a5f60001984600802610a41565b1980831691505092915050565b6000610a788383610a4e565b9150826002028217905092915050565b610a9182610548565b67ffffffffffffffff811115610aaa57610aa96103d4565b5b610ab48254610767565b610abf8282856109fb565b600060209050601f831160018114610af25760008415610ae0578287015190505b610aea8582610a6c565b865550610b52565b601f198416610b00866108dc565b60005b82811015610b2857848901518255600182019150602085019450602081019050610b03565b86831015610b455784890151610b41601f891682610a4e565b8355505b6001600288020188555050505b505050505050565b6000604082019050610b6f600083018561037b565b610b7c60208301846105d1565b939250505056fea26469706673582212201f28ff90de6665b5b14348c20707a76313a91e570ed9a5b4ac599573a73d6bad64736f6c63430008140033",
  "linkReferences": {},
  "deployedLinkReferences": {}
}